{
  "contractName": "Asignatura",
  "abi": [
    {
      "inputs": [
        {
          "internalType": "string",
          "name": "_nombre",
          "type": "string"
        },
        {
          "internalType": "string",
          "name": "_curso",
          "type": "string"
        }
      ],
      "stateMutability": "nonpayable",
      "type": "constructor"
    },
    {
      "inputs": [
        {
          "internalType": "address",
          "name": "",
          "type": "address"
        },
        {
          "internalType": "uint256",
          "name": "",
          "type": "uint256"
        }
      ],
      "name": "calificaciones",
      "outputs": [
        {
          "internalType": "enum Asignatura.TipoNota",
          "name": "tipo",
          "type": "uint8"
        },
        {
          "internalType": "uint256",
          "name": "calificacion",
          "type": "uint256"
        }
      ],
      "stateMutability": "view",
      "type": "function",
      "constant": true
    },
    {
      "inputs": [],
      "name": "curso",
      "outputs": [
        {
          "internalType": "string",
          "name": "",
          "type": "string"
        }
      ],
      "stateMutability": "view",
      "type": "function",
      "constant": true
    },
    {
      "inputs": [
        {
          "internalType": "address",
          "name": "",
          "type": "address"
        }
      ],
      "name": "datosAlumno",
      "outputs": [
        {
          "internalType": "string",
          "name": "nombre",
          "type": "string"
        },
        {
          "internalType": "string",
          "name": "email",
          "type": "string"
        }
      ],
      "stateMutability": "view",
      "type": "function",
      "constant": true
    },
    {
      "inputs": [
        {
          "internalType": "uint256",
          "name": "",
          "type": "uint256"
        }
      ],
      "name": "evaluaciones",
      "outputs": [
        {
          "internalType": "string",
          "name": "nombre",
          "type": "string"
        },
        {
          "internalType": "uint256",
          "name": "fecha",
          "type": "uint256"
        },
        {
          "internalType": "uint256",
          "name": "puntos",
          "type": "uint256"
        }
      ],
      "stateMutability": "view",
      "type": "function",
      "constant": true
    },
    {
      "inputs": [
        {
          "internalType": "uint256",
          "name": "",
          "type": "uint256"
        }
      ],
      "name": "matriculas",
      "outputs": [
        {
          "internalType": "address",
          "name": "",
          "type": "address"
        }
      ],
      "stateMutability": "view",
      "type": "function",
      "constant": true
    },
    {
      "inputs": [],
      "name": "nombre",
      "outputs": [
        {
          "internalType": "string",
          "name": "",
          "type": "string"
        }
      ],
      "stateMutability": "view",
      "type": "function",
      "constant": true
    },
    {
      "inputs": [],
      "name": "profesor",
      "outputs": [
        {
          "internalType": "address",
          "name": "",
          "type": "address"
        }
      ],
      "stateMutability": "view",
      "type": "function",
      "constant": true
    },
    {
      "stateMutability": "payable",
      "type": "receive",
      "payable": true
    },
    {
      "inputs": [],
      "name": "evaluacionesLength",
      "outputs": [
        {
          "internalType": "uint256",
          "name": "",
          "type": "uint256"
        }
      ],
      "stateMutability": "view",
      "type": "function",
      "constant": true
    },
    {
      "inputs": [
        {
          "internalType": "string",
          "name": "_nombre",
          "type": "string"
        },
        {
          "internalType": "uint256",
          "name": "_fecha",
          "type": "uint256"
        },
        {
          "internalType": "uint256",
          "name": "_puntos",
          "type": "uint256"
        }
      ],
      "name": "creaEvaluacion",
      "outputs": [
        {
          "internalType": "uint256",
          "name": "",
          "type": "uint256"
        }
      ],
      "stateMutability": "nonpayable",
      "type": "function"
    },
    {
      "inputs": [],
      "name": "matriculasLength",
      "outputs": [
        {
          "internalType": "uint256",
          "name": "",
          "type": "uint256"
        }
      ],
      "stateMutability": "view",
      "type": "function",
      "constant": true
    },
    {
      "inputs": [
        {
          "internalType": "string",
          "name": "_nombre",
          "type": "string"
        },
        {
          "internalType": "string",
          "name": "_email",
          "type": "string"
        }
      ],
      "name": "automatricula",
      "outputs": [],
      "stateMutability": "nonpayable",
      "type": "function"
    },
    {
      "inputs": [],
      "name": "quienSoy",
      "outputs": [
        {
          "internalType": "string",
          "name": "_nombre",
          "type": "string"
        },
        {
          "internalType": "string",
          "name": "_email",
          "type": "string"
        }
      ],
      "stateMutability": "view",
      "type": "function",
      "constant": true
    },
    {
      "inputs": [
        {
          "internalType": "address",
          "name": "alumno",
          "type": "address"
        },
        {
          "internalType": "uint256",
          "name": "evaluacion",
          "type": "uint256"
        },
        {
          "internalType": "enum Asignatura.TipoNota",
          "name": "tipo",
          "type": "uint8"
        },
        {
          "internalType": "uint256",
          "name": "calificacion",
          "type": "uint256"
        }
      ],
      "name": "califica",
      "outputs": [],
      "stateMutability": "nonpayable",
      "type": "function"
    },
    {
      "inputs": [
        {
          "internalType": "uint256",
          "name": "evaluacion",
          "type": "uint256"
        }
      ],
      "name": "miNota",
      "outputs": [
        {
          "internalType": "enum Asignatura.TipoNota",
          "name": "tipo",
          "type": "uint8"
        },
        {
          "internalType": "uint256",
          "name": "calificacion",
          "type": "uint256"
        }
      ],
      "stateMutability": "view",
      "type": "function",
      "constant": true
    }
  ],
  "bytecode": "0x60806040523480156200001157600080fd5b5060405162001f4238038062001f42833981810160405260408110156200003757600080fd5b81019080805160405193929190846401000000008211156200005857600080fd5b838201915060208201858111156200006f57600080fd5b82518660018202830111640100000000821117156200008d57600080fd5b8083526020830192505050908051906020019080838360005b83811015620000c3578082015181840152602081019050620000a6565b50505050905090810190601f168015620000f15780820380516001836020036101000a031916815260200191505b50604052602001805160405193929190846401000000008211156200011557600080fd5b838201915060208201858111156200012c57600080fd5b82518660018202830111640100000000821117156200014a57600080fd5b8083526020830192505050908051906020019080838360005b838110156200018057808201518184015260208101905062000163565b50505050905090810190601f168015620001ae5780820380516001836020036101000a031916815260200191505b50604052505050606082905060008151141562000217576040517f08c379a000000000000000000000000000000000000000000000000000000000815260040180806020018281038252602d81526020018062001f15602d913960400191505060405180910390fd5b606082905060008151141562000279576040517f08c379a000000000000000000000000000000000000000000000000000000000815260040180806020018281038252603681526020018062001edf6036913960400191505060405180910390fd5b336000806101000a81548173ffffffffffffffffffffffffffffffffffffffff021916908373ffffffffffffffffffffffffffffffffffffffff1602179055508360019080519060200190620002d1929190620002f5565b508260029080519060200190620002ea929190620002f5565b5050505050620003ab565b828054600181600116156101000203166002900490600052602060002090601f0160209004810192826200032d576000855562000379565b82601f106200034857805160ff191683800117855562000379565b8280016001018555821562000379579182015b82811115620003785782518255916020019190600101906200035b565b5b5090506200038891906200038c565b5090565b5b80821115620003a75760008160009055506001016200038d565b5090565b611b2480620003bb6000396000f3fe6080604052600436106100e15760003560e01c80639e1d8f4b1161007f578063d017da1f11610059578063d017da1f146107cd578063d27c3f3c146108bd578063deafcc411461091e578063df096576146109ae57610137565b80639e1d8f4b146106ad578063bc7b35b2146106d8578063c79181391461076857610137565b8063488cf4f5116100bb578063488cf4f5146102f1578063537668831461031c57806361d4c6ad146104185780636bf8aad61461057757610137565b806330322c9b1461013c57806342a6dde2146101ae57806344f7a8cc1461022f57610137565b36610137576040517f08c379a0000000000000000000000000000000000000000000000000000000008152600401808060200182810382526025815260200180611a396025913960400191505060405180910390fd5b600080fd5b34801561014857600080fd5b506101ac6004803603608081101561015f57600080fd5b81019080803573ffffffffffffffffffffffffffffffffffffffff16906020019092919080359060200190929190803560ff169060200190929190803590602001909291905050506109ef565b005b3480156101ba57600080fd5b50610207600480360360408110156101d157600080fd5b81019080803573ffffffffffffffffffffffffffffffffffffffff16906020019092919080359060200190929190505050610c7d565b6040518083600281111561021757fe5b81526020018281526020019250505060405180910390f35b34801561023b57600080fd5b506102686004803603602081101561025257600080fd5b8101908080359060200190929190505050610cbb565b6040518080602001848152602001838152602001828103825285818151815260200191508051906020019080838360005b838110156102b4578082015181840152602081019050610299565b50505050905090810190601f1680156102e15780820380516001836020036101000a031916815260200191505b5094505050505060405180910390f35b3480156102fd57600080fd5b50610306610d8d565b6040518082815260200191505060405180910390f35b34801561032857600080fd5b50610331610d9a565b604051808060200180602001838103835285818151815260200191508051906020019080838360005b8381101561037557808201518184015260208101905061035a565b50505050905090810190601f1680156103a25780820380516001836020036101000a031916815260200191505b50838103825284818151815260200191508051906020019080838360005b838110156103db5780820151818401526020810190506103c0565b50505050905090810190601f1680156104085780820380516001836020036101000a031916815260200191505b5094505050505060405180910390f35b34801561042457600080fd5b506105756004803603604081101561043b57600080fd5b810190808035906020019064010000000081111561045857600080fd5b82018360208201111561046a57600080fd5b8035906020019184600183028401116401000000008311171561048c57600080fd5b91908080601f016020809104026020016040519081016040528093929190818152602001838380828437600081840152601f19601f820116905080830192505050505050509192919290803590602001906401000000008111156104ef57600080fd5b82018360208201111561050157600080fd5b8035906020019184600183028401116401000000008311171561052357600080fd5b91908080601f016020809104026020016040519081016040528093929190818152602001838380828437600081840152601f19601f820116905080830192505050505050509192919290505050610fa6565b005b34801561058357600080fd5b506105c66004803603602081101561059a57600080fd5b81019080803573ffffffffffffffffffffffffffffffffffffffff169060200190929190505050611187565b604051808060200180602001838103835285818151815260200191508051906020019080838360005b8381101561060a5780820151818401526020810190506105ef565b50505050905090810190601f1680156106375780820380516001836020036101000a031916815260200191505b50838103825284818151815260200191508051906020019080838360005b83811015610670578082015181840152602081019050610655565b50505050905090810190601f16801561069d5780820380516001836020036101000a031916815260200191505b5094505050505060405180910390f35b3480156106b957600080fd5b506106c26112db565b6040518082815260200191505060405180910390f35b3480156106e457600080fd5b506106ed6112e8565b6040518080602001828103825283818151815260200191508051906020019080838360005b8381101561072d578082015181840152602081019050610712565b50505050905090810190601f16801561075a5780820380516001836020036101000a031916815260200191505b509250505060405180910390f35b34801561077457600080fd5b506107a16004803603602081101561078b57600080fd5b8101908080359060200190929190505050611386565b604051808273ffffffffffffffffffffffffffffffffffffffff16815260200191505060405180910390f35b3480156107d957600080fd5b506108a7600480360360608110156107f057600080fd5b810190808035906020019064010000000081111561080d57600080fd5b82018360208201111561081f57600080fd5b8035906020019184600183028401116401000000008311171561084157600080fd5b91908080601f016020809104026020016040519081016040528093929190818152602001838380828437600081840152601f19601f82011690508083019250505050505050919291929080359060200190929190803590602001909291905050506113c5565b6040518082815260200191505060405180910390f35b3480156108c957600080fd5b506108f6600480360360208110156108e057600080fd5b8101908080359060200190929190505050611575565b6040518083600281111561090657fe5b81526020018281526020019250505060405180910390f35b34801561092a57600080fd5b506109336116e3565b6040518080602001828103825283818151815260200191508051906020019080838360005b83811015610973578082015181840152602081019050610958565b50505050905090810190601f1680156109a05780820380516001836020036101000a031916815260200191505b509250505060405180910390f35b3480156109ba57600080fd5b506109c3611781565b604051808273ffffffffffffffffffffffffffffffffffffffff16815260200191505060405180910390f35b60008054906101000a900473ffffffffffffffffffffffffffffffffffffffff1673ffffffffffffffffffffffffffffffffffffffff163373ffffffffffffffffffffffffffffffffffffffff1614610ab0576040517f08c379a000000000000000000000000000000000000000000000000000000000815260040180806020018281038252601a8152602001807f536f6c6f207065726d697469646f20616c2070726f6665736f7200000000000081525060200191505060405180910390fd5b610ab9846117a5565b610b0e576040517f08c379a0000000000000000000000000000000000000000000000000000000008152600401808060200182810382526031815260200180611a916031913960400191505060405180910390fd5b6003805490508310610b6b576040517f08c379a0000000000000000000000000000000000000000000000000000000008152600401808060200182810382526033815260200180611a5e6033913960400191505060405180910390fd5b6064811115610bc5576040517f08c379a00000000000000000000000000000000000000000000000000000000081526004018080602001828103825260428152602001806119d26042913960600191505060405180910390fd5b610bcd61189a565b6040518060400160405280846002811115610be457fe5b815260200183815250905080600660008773ffffffffffffffffffffffffffffffffffffffff1673ffffffffffffffffffffffffffffffffffffffff168152602001908152602001600020600086815260200190815260200160002060008201518160000160006101000a81548160ff02191690836002811115610c6457fe5b0217905550602082015181600101559050505050505050565b6006602052816000526040600020602052806000526040600020600091509150508060000160009054906101000a900460ff16908060010154905082565b60038181548110610ccb57600080fd5b9060005260206000209060030201600091509050806000018054600181600116156101000203166002900480601f016020809104026020016040519081016040528092919081815260200182805460018160011615610100020316600290048015610d775780601f10610d4c57610100808354040283529160200191610d77565b820191906000526020600020905b815481529060010190602001808311610d5a57829003601f168201915b5050505050908060010154908060020154905083565b6000600380549050905090565b606080610da6336117a5565b610dfb576040517f08c379a00000000000000000000000000000000000000000000000000000000081526004018080602001828103825260258152602001806119ad6025913960400191505060405180910390fd5b610e036118bf565b600460003373ffffffffffffffffffffffffffffffffffffffff1673ffffffffffffffffffffffffffffffffffffffff168152602001908152602001600020604051806040016040529081600082018054600181600116156101000203166002900480601f016020809104026020016040519081016040528092919081815260200182805460018160011615610100020316600290048015610ee65780601f10610ebb57610100808354040283529160200191610ee6565b820191906000526020600020905b815481529060010190602001808311610ec957829003601f168201915b50505050508152602001600182018054600181600116156101000203166002900480601f016020809104026020016040519081016040528092919081815260200182805460018160011615610100020316600290048015610f885780601f10610f5d57610100808354040283529160200191610f88565b820191906000526020600020905b815481529060010190602001808311610f6b57829003601f168201915b50505050508152505090508060000151925080602001519150509091565b610faf336117a5565b15611005576040517f08c379a00000000000000000000000000000000000000000000000000000000081526004018080602001828103825260288152602001806119856028913960400191505060405180910390fd5b6060829050600081511415611082576040517f08c379a000000000000000000000000000000000000000000000000000000000815260040180806020018281038252601c8152602001807f456c206e6f6d627265206e6f2070756564652073657220766163696f0000000081525060200191505060405180910390fd5b61108a6118bf565b604051806040016040528085815260200184815250905080600460003373ffffffffffffffffffffffffffffffffffffffff1673ffffffffffffffffffffffffffffffffffffffff16815260200190815260200160002060008201518160000190805190602001906110fd9291906118d9565b50602082015181600101908051906020019061111a9291906118d9565b509050506005339080600181540180825580915050600190039060005260206000200160009091909190916101000a81548173ffffffffffffffffffffffffffffffffffffffff021916908373ffffffffffffffffffffffffffffffffffffffff16021790555050505050565b6004602052806000526040600020600091509050806000018054600181600116156101000203166002900480601f0160208091040260200160405190810160405280929190818152602001828054600181600116156101000203166002900480156112335780601f1061120857610100808354040283529160200191611233565b820191906000526020600020905b81548152906001019060200180831161121657829003601f168201915b505050505090806001018054600181600116156101000203166002900480601f0160208091040260200160405190810160405280929190818152602001828054600181600116156101000203166002900480156112d15780601f106112a6576101008083540402835291602001916112d1565b820191906000526020600020905b8154815290600101906020018083116112b457829003601f168201915b5050505050905082565b6000600580549050905090565b60018054600181600116156101000203166002900480601f01602080910402602001604051908101604052809291908181526020018280546001816001161561010002031660029004801561137e5780601f106113535761010080835404028352916020019161137e565b820191906000526020600020905b81548152906001019060200180831161136157829003601f168201915b505050505081565b6005818154811061139657600080fd5b906000526020600020016000915054906101000a900473ffffffffffffffffffffffffffffffffffffffff1681565b60008060009054906101000a900473ffffffffffffffffffffffffffffffffffffffff1673ffffffffffffffffffffffffffffffffffffffff163373ffffffffffffffffffffffffffffffffffffffff1614611489576040517f08c379a000000000000000000000000000000000000000000000000000000000815260040180806020018281038252601a8152602001807f536f6c6f207065726d697469646f20616c2070726f6665736f7200000000000081525060200191505060405180910390fd5b60608490506000815114156114e9576040517f08c379a000000000000000000000000000000000000000000000000000000000815260040180806020018281038252602d815260200180611ac2602d913960400191505060405180910390fd5b60036040518060600160405280878152602001868152602001858152509080600181540180825580915050600190039060005260206000209060030201600090919091909150600082015181600001908051906020019061154b9291906118d9565b50602082015181600101556040820151816002015550506001600380549050039150509392505050565b600080611581336117a5565b6115d6576040517f08c379a00000000000000000000000000000000000000000000000000000000081526004018080602001828103825260258152602001806119ad6025913960400191505060405180910390fd5b6003805490508310611633576040517f08c379a0000000000000000000000000000000000000000000000000000000008152600401808060200182810382526025815260200180611a146025913960400191505060405180910390fd5b61163b61189a565b600660003373ffffffffffffffffffffffffffffffffffffffff1673ffffffffffffffffffffffffffffffffffffffff16815260200190815260200160002060008581526020019081526020016000206040518060400160405290816000820160009054906101000a900460ff1660028111156116b457fe5b60028111156116bf57fe5b81526020016001820154815250509050806000015192508060200151915050915091565b60028054600181600116156101000203166002900480601f0160208091040260200160405190810160405280929190818152602001828054600181600116156101000203166002900480156117795780601f1061174e57610100808354040283529160200191611779565b820191906000526020600020905b81548152906001019060200180831161175c57829003601f168201915b505050505081565b60008054906101000a900473ffffffffffffffffffffffffffffffffffffffff1681565b60006060600460008473ffffffffffffffffffffffffffffffffffffffff1673ffffffffffffffffffffffffffffffffffffffff1681526020019081526020016000206000018054600181600116156101000203166002900480601f01602080910402602001604051908101604052809291908181526020018280546001816001161561010002031660029004801561187f5780601f106118545761010080835404028352916020019161187f565b820191906000526020600020905b81548152906001019060200180831161186257829003601f168201915b50505050509050606081905060008151141592505050919050565b6040518060400160405280600060028111156118b257fe5b8152602001600081525090565b604051806040016040528060608152602001606081525090565b828054600181600116156101000203166002900490600052602060002090601f01602090048101928261190f5760008555611956565b82601f1061192857805160ff1916838001178555611956565b82800160010185558215611956579182015b8281111561195557825182559160200191906001019061193a565b5b5090506119639190611967565b5090565b5b80821115611980576000816000905550600101611968565b509056fe536f6c6f207065726d697469646f206120616c756d6e6f73206e6f206d6174726963756c61646f73536f6c6f207065726d697469646f206120616c756d6e6f73206d6174726963756c61646f734e6f2073652070756564652063616c69666963617220636f6e20756e61206e6f7461207375706572696f722061206c61206d6178696d61207065726d69746964612e456c20696e64696365206465206c61206576616c756163696f6e206e6f206578697374652e4e6f207365207065726d697465206c6120726563657063696f6e2064652064696e65726f2e4e6f2073652070756564652063616c69666963617220756e61206576616c756163696f6e20717565206e6f206578697374652e536f6c6f2073652070756564656e2063616c696669636172206120756e20616c756d6e6f206d6174726963756c61646f2e456c206e6f6d627265206465206c61206576616c756163696f6e206e6f2070756564652073657220766163696fa26469706673582212205ba0c56fb25cb5bd2d9d6b0e7aa8483a30de785b1b69cc09de03068e0d30bc4864736f6c63430007040033456c20637572736f2061636164656d69636f206465206c6120617369676e6174757261206e6f2070756564652073657220766163696f456c206e6f6d627265206465206c6120617369676e6174757261206e6f2070756564652073657220766163696f",
  "immutableReferences": {},
  "source": "// SPDX-License-Identifier: UNLICENSED\r\npragma solidity ^0.7.4;\r\n\r\n/**\r\n *  El contrato Asignatura que representa una asignatura de la carrera.\r\n * \r\n * Errores que hay que corregir:\r\n *  - Gestionar el limite de los puntos que aporta cada evaluacion.\r\n *  - Puede repetirse el nombre de una evaluacion, o de un alumno, ....?\r\n *  - Cambiar algunos uint a uint8 ??\r\n */\r\ncontract Asignatura {\r\n    \r\n    /**\r\n     * address del profesor que ha desplegado el contrato.\r\n     * El contrato lo despliega el profesor.\r\n     */\r\n    address public profesor;\r\n    \r\n    /// Nombre de la asignatura\r\n    string public nombre;\r\n    \r\n    // Curso academico\r\n    string public curso;\r\n    \r\n    \r\n    /**\r\n     * Datos de una evaluacion.\r\n     */\r\n    struct Evaluacion {\r\n        string nombre;\r\n        uint fecha;\r\n        uint puntos;\r\n    }\r\n    \r\n    \r\n    /// Evaluaciones de la asignatura.\r\n    Evaluacion[] public evaluaciones;\r\n\r\n\r\n    /// Datos de un alumno.\r\n    struct DatosAlumno {\r\n        string nombre;\r\n        string email;\r\n    }\r\n    \r\n    \r\n    /// Acceder a los datos de un alumno dada su direccion.\r\n    mapping (address => DatosAlumno) public datosAlumno;\r\n    \r\n    \r\n    // Array con las direcciones de los alumnos matriculados.\r\n    address[] public matriculas;\r\n    \r\n    \r\n    /// Tipos de notas: no presentado, nota entre 0 y 10, y matricuka de honor.\r\n    enum TipoNota { NP, Normal, MH }\r\n    \r\n    /**\r\n     * Datos de una nota.\r\n     * La calificacion esta multipilicada por 100 porque no hay decimales.\r\n     */\r\n    struct Nota {\r\n        TipoNota tipo;\r\n        uint calificacion;\r\n    }\r\n    \r\n    \r\n    // Dada la direccion de un alumno, y el indice de la evaluacion, devuelve\r\n    // la nota del alumno.\r\n    mapping (address => mapping (uint => Nota)) public calificaciones;\r\n    \r\n    \r\n    /**\r\n     * Constructor.\r\n     * \r\n     * @param _nombre Nombre de la asignatura.\r\n     * @param _curso  Curso academico.\r\n     */\r\n    constructor(string memory _nombre, string memory _curso) {\r\n        \r\n        bytes memory bn = bytes(_nombre);\r\n        require(bn.length != 0, \"El nombre de la asignatura no puede ser vacio\");\r\n       \r\n        bytes memory bc = bytes(_curso);\r\n        require(bc.length != 0, \"El curso academico de la asignatura no puede ser vacio\");\r\n      \r\n        profesor = msg.sender;\r\n        nombre = _nombre;\r\n        curso = _curso;\r\n    }\r\n    \r\n    \r\n    /**\r\n     * El numero de evaluaciones creadas.\r\n     *\r\n     * @return El numero de evaluaciones creadas.\r\n     */\r\n    function evaluacionesLength() public view returns(uint) {\r\n        return evaluaciones.length;\r\n    }\r\n    \r\n    \r\n    /**\r\n     * Crear una prueba de evaluacion de la asignatura. Por ejemplo, el primer parcial, o la practica 3. \r\n     *\r\n     * Las evaluaciones se meteran en el array evaluaciones, y nos referiremos a ellas por su posicion en el array.\r\n     * \r\n     * @param _nombre El nombre de la evaluacion.\r\n     * @param _fecha  La fecha de evaluacion (segundos desde el 1/1/1970).\r\n     * @param _puntos Los puntos que proporciona a la nota final.\r\n     * \r\n     * @return La posicion en el array evaluaciones,\r\n     */\r\n    function creaEvaluacion(string memory _nombre, uint _fecha, uint _puntos) soloProfesor public returns (uint) {\r\n        \r\n        bytes memory bn = bytes(_nombre);\r\n        require(bn.length != 0, \"El nombre de la evaluacion no puede ser vacio\");\r\n        \r\n        evaluaciones.push(Evaluacion(_nombre, _fecha, _puntos));\r\n        return evaluaciones.length - 1;\r\n    }\r\n    \r\n \r\n     /**\r\n     * El numero de alumnos matriculados.\r\n     *\r\n     * @return El numero de alumnos matriculados.\r\n     */\r\n    function matriculasLength() public view returns(uint) {\r\n        return matriculas.length;\r\n    }\r\n    \r\n    \r\n    /**\r\n     * Los alumnos pueden automatricularse con el metodo automatricula.\r\n     * \r\n     * Impedir que se pueda meter un nombre vacio.\r\n     *\r\n     * @param _nombre El nombre del alumno. \r\n     * @param _email  El email del alumno.\r\n     */\r\n    function automatricula(string memory _nombre, string memory _email) noMatriculados public {\r\n        \r\n        bytes memory b = bytes(_nombre);\r\n        require(b.length != 0, \"El nombre no puede ser vacio\");\r\n        \r\n        DatosAlumno memory datos = DatosAlumno(_nombre, _email);\r\n        \r\n        datosAlumno[msg.sender] = datos;\r\n        \r\n        matriculas.push(msg.sender);\r\n        \r\n    }\r\n    \r\n    \r\n    /**\r\n     * Permite a un alumno obtener sus propios datos.\r\n     * \r\n     * @return _nombre El nombre del alumno que invoca el metodo.\r\n     * @return _email  El email del alumno que invoca el metodo.\r\n     */\r\n    function quienSoy() soloMatriculados public view returns (string memory _nombre, string memory _email) {\r\n        DatosAlumno memory datos = datosAlumno[msg.sender];\r\n        _nombre = datos.nombre;\r\n        _email = datos.email;\r\n    }\r\n    \r\n    \r\n    /**\r\n     * Poner la nota de un alumno en una evaluacion.\r\n     * \r\n     * @param alumno        La direccion del alumno.\r\n     * @param evaluacion    El indice de una evaluacion en el array evaluaciones.\r\n     * @param tipo          Tipo de nota.\r\n     * @param calificacion  La calificacion, multipilicada por 100 porque no hay decimales.\r\n     */\r\n    function califica(address alumno, uint evaluacion, TipoNota tipo, uint calificacion) soloProfesor public {\r\n        \r\n        require(estaMatriculado(alumno), \"Solo se pueden calificar a un alumno matriculado.\");\r\n        require(evaluacion < evaluaciones.length, \"No se puede calificar una evaluacion que no existe.\");\r\n        require(calificacion <= 100, \"No se puede calificar con una nota superior a la maxima permitida.\");\r\n\r\n        Nota memory nota = Nota(tipo, calificacion);\r\n        \r\n        calificaciones[alumno][evaluacion] = nota;\r\n    }\r\n    \r\n    \r\n    /**\r\n     * Consulta si una direccion pertenece a un alumno matriculado.\r\n     * \r\n     * @param alumno La direccion de un alumno.\r\n     * \r\n     * @return true si es una alumno matriculado.\r\n     */\r\n    function estaMatriculado(address alumno) private view returns (bool) {\r\n      \r\n        string memory _nombre = datosAlumno[alumno].nombre;\r\n        \r\n        bytes memory b = bytes(_nombre);\r\n        \r\n        return b.length != 0;\r\n    } \r\n   \r\n   \r\n    /**\r\n     * Devuelve el tipo de nota y la calificacion que ha sacado el alumno que invoca el metodo en la evaluacion pasada como parametro.\r\n     * \r\n     * @param evaluacion Indice de una evaluacion en el array de evaluaciones.\r\n     * \r\n     * @return tipo         El tipo de nota que ha sacado el alumno.\r\n     * @return calificacion La calificacion que ha sacado el alumno.\r\n     */ \r\n    function miNota(uint evaluacion) soloMatriculados public view returns (TipoNota tipo, uint calificacion) {\r\n        \r\n        require(evaluacion < evaluaciones.length, \"El indice de la evaluacion no existe.\");\r\n        \r\n        Nota memory nota = calificaciones[msg.sender][evaluacion];\r\n        \r\n        tipo = nota.tipo;\r\n        calificacion = nota.calificacion;\r\n    }\r\n    \r\n    \r\n    /**\r\n     * Modificador para que una funcion solo la pueda ejecutar el profesor.\r\n     * \r\n     * Se usa en creaEvaluacion y en califica.\r\n     */\r\n    modifier soloProfesor() {\r\n        \r\n        require(msg.sender == profesor, \"Solo permitido al profesor\");\r\n        _;\r\n    }\r\n    \r\n    \r\n    /**\r\n     * Modificador para que una funcion solo la pueda ejecutar un alumno matriculado.\r\n     */\r\n    modifier soloMatriculados() {\r\n        \r\n        require(estaMatriculado(msg.sender), \"Solo permitido a alumnos matriculados\");\r\n        _;\r\n    }\r\n    \r\n    \r\n    /**\r\n     * Modificador para que una funcion solo la pueda ejecutar un alumno no matriculado aun.\r\n     */\r\n    modifier noMatriculados() {\r\n        \r\n        require(!estaMatriculado(msg.sender), \"Solo permitido a alumnos no matriculados\");\r\n        _;\r\n    }\r\n    \r\n    \r\n    /**\r\n     * No se permite la recepcion de dinero.\r\n     */\r\n    receive() external payable {\r\n        revert(\"No se permite la recepcion de dinero.\");\r\n    }\r\n}\r\n",
  "sourcePath": "D:/1 SERGIO/ETSIT UPM Universidad/6 Year/1_Semestre/BCDA/Practicas/3v2/P3_Asignatura_Drizzle/contracts/Asignatura.sol",
  "compiler": {
    "name": "solc",
    "version": "0.7.4+commit.3f05b770.Emscripten.clang"
  },
  "schemaVersion": "3.3.3",
  "updatedAt": "2021-01-10T16:57:21.685Z",
  "networkType": "ethereum",
  "devdoc": {
    "kind": "dev",
    "methods": {
      "automatricula(string,string)": {
        "params": {
          "_email": "El email del alumno.",
          "_nombre": "El nombre del alumno. "
        }
      },
      "califica(address,uint256,uint8,uint256)": {
        "params": {
          "alumno": "La direccion del alumno.",
          "calificacion": "La calificacion, multipilicada por 100 porque no hay decimales.",
          "evaluacion": "El indice de una evaluacion en el array evaluaciones.",
          "tipo": "Tipo de nota."
        }
      },
      "constructor": {
        "params": {
          "_curso": "Curso academico.",
          "_nombre": "Nombre de la asignatura."
        }
      },
      "creaEvaluacion(string,uint256,uint256)": {
        "params": {
          "_fecha": "La fecha de evaluacion (segundos desde el 1/1/1970).",
          "_nombre": "El nombre de la evaluacion.",
          "_puntos": "Los puntos que proporciona a la nota final. "
        },
        "returns": {
          "_0": "La posicion en el array evaluaciones,"
        }
      },
      "evaluacionesLength()": {
        "returns": {
          "_0": "El numero de evaluaciones creadas."
        }
      },
      "matriculasLength()": {
        "returns": {
          "_0": "El numero de alumnos matriculados."
        }
      },
      "miNota(uint256)": {
        "params": {
          "evaluacion": "Indice de una evaluacion en el array de evaluaciones. "
        },
        "returns": {
          "calificacion": "La calificacion que ha sacado el alumno.",
          "tipo": "        El tipo de nota que ha sacado el alumno."
        }
      },
      "quienSoy()": {
        "returns": {
          "_email": " El email del alumno que invoca el metodo.",
          "_nombre": "El nombre del alumno que invoca el metodo."
        }
      }
    },
    "version": 1
  },
  "userdoc": {
    "kind": "user",
    "methods": {
      "automatricula(string,string)": {
        "notice": "Los alumnos pueden automatricularse con el metodo automatricula.  Impedir que se pueda meter un nombre vacio."
      },
      "califica(address,uint256,uint8,uint256)": {
        "notice": "Poner la nota de un alumno en una evaluacion. "
      },
      "constructor": {
        "notice": "Constructor. "
      },
      "creaEvaluacion(string,uint256,uint256)": {
        "notice": "Crear una prueba de evaluacion de la asignatura. Por ejemplo, el primer parcial, o la practica 3.  Las evaluaciones se meteran en el array evaluaciones, y nos referiremos a ellas por su posicion en el array. "
      },
      "datosAlumno(address)": {
        "notice": "Acceder a los datos de un alumno dada su direccion."
      },
      "evaluaciones(uint256)": {
        "notice": "Evaluaciones de la asignatura."
      },
      "evaluacionesLength()": {
        "notice": "El numero de evaluaciones creadas."
      },
      "matriculasLength()": {
        "notice": "El numero de alumnos matriculados."
      },
      "miNota(uint256)": {
        "notice": "Devuelve el tipo de nota y la calificacion que ha sacado el alumno que invoca el metodo en la evaluacion pasada como parametro. "
      },
      "nombre()": {
        "notice": "Nombre de la asignatura"
      },
      "profesor()": {
        "notice": "address del profesor que ha desplegado el contrato. El contrato lo despliega el profesor."
      },
      "quienSoy()": {
        "notice": "Permite a un alumno obtener sus propios datos. "
      }
    },
    "notice": "El contrato Asignatura que representa una asignatura de la carrera.  Errores que hay que corregir:  - Gestionar el limite de los puntos que aporta cada evaluacion.  - Puede repetirse el nombre de una evaluacion, o de un alumno, ....?  - Cambiar algunos uint a uint8 ??",
    "version": 1
  }
}